{
  "address": "0xF21dCA61E9f6Bd5210B8B0FC2cEfBf732623e1AB",
  "abi": [
    {
      "inputs": [
        {
          "internalType": "string[10]",
          "name": "_tokenUris",
          "type": "string[10]"
        }
      ],
      "stateMutability": "nonpayable",
      "type": "constructor"
    },
    {
      "anonymous": false,
      "inputs": [
        {
          "indexed": true,
          "internalType": "address",
          "name": "owner",
          "type": "address"
        },
        {
          "indexed": true,
          "internalType": "address",
          "name": "approved",
          "type": "address"
        },
        {
          "indexed": true,
          "internalType": "uint256",
          "name": "tokenId",
          "type": "uint256"
        }
      ],
      "name": "Approval",
      "type": "event"
    },
    {
      "anonymous": false,
      "inputs": [
        {
          "indexed": true,
          "internalType": "address",
          "name": "owner",
          "type": "address"
        },
        {
          "indexed": true,
          "internalType": "address",
          "name": "operator",
          "type": "address"
        },
        {
          "indexed": false,
          "internalType": "bool",
          "name": "approved",
          "type": "bool"
        }
      ],
      "name": "ApprovalForAll",
      "type": "event"
    },
    {
      "anonymous": false,
      "inputs": [
        {
          "indexed": false,
          "internalType": "uint256",
          "name": "_fromTokenId",
          "type": "uint256"
        },
        {
          "indexed": false,
          "internalType": "uint256",
          "name": "_toTokenId",
          "type": "uint256"
        }
      ],
      "name": "BatchMetadataUpdate",
      "type": "event"
    },
    {
      "anonymous": false,
      "inputs": [
        {
          "indexed": false,
          "internalType": "uint256",
          "name": "_tokenId",
          "type": "uint256"
        }
      ],
      "name": "MetadataUpdate",
      "type": "event"
    },
    {
      "anonymous": false,
      "inputs": [
        {
          "indexed": true,
          "internalType": "address",
          "name": "from",
          "type": "address"
        },
        {
          "indexed": true,
          "internalType": "address",
          "name": "to",
          "type": "address"
        },
        {
          "indexed": true,
          "internalType": "uint256",
          "name": "tokenId",
          "type": "uint256"
        }
      ],
      "name": "Transfer",
      "type": "event"
    },
    {
      "inputs": [
        {
          "internalType": "address",
          "name": "to",
          "type": "address"
        },
        {
          "internalType": "uint256",
          "name": "tokenId",
          "type": "uint256"
        }
      ],
      "name": "approve",
      "outputs": [],
      "stateMutability": "nonpayable",
      "type": "function"
    },
    {
      "inputs": [
        {
          "internalType": "address",
          "name": "owner",
          "type": "address"
        }
      ],
      "name": "balanceOf",
      "outputs": [
        {
          "internalType": "uint256",
          "name": "",
          "type": "uint256"
        }
      ],
      "stateMutability": "view",
      "type": "function"
    },
    {
      "inputs": [
        {
          "internalType": "uint256",
          "name": "tokenId",
          "type": "uint256"
        }
      ],
      "name": "getApproved",
      "outputs": [
        {
          "internalType": "address",
          "name": "",
          "type": "address"
        }
      ],
      "stateMutability": "view",
      "type": "function"
    },
    {
      "inputs": [],
      "name": "getTokenCounter",
      "outputs": [
        {
          "internalType": "uint256",
          "name": "",
          "type": "uint256"
        }
      ],
      "stateMutability": "view",
      "type": "function"
    },
    {
      "inputs": [
        {
          "internalType": "address",
          "name": "owner",
          "type": "address"
        },
        {
          "internalType": "address",
          "name": "operator",
          "type": "address"
        }
      ],
      "name": "isApprovedForAll",
      "outputs": [
        {
          "internalType": "bool",
          "name": "",
          "type": "bool"
        }
      ],
      "stateMutability": "view",
      "type": "function"
    },
    {
      "inputs": [],
      "name": "mintNft",
      "outputs": [],
      "stateMutability": "nonpayable",
      "type": "function"
    },
    {
      "inputs": [],
      "name": "name",
      "outputs": [
        {
          "internalType": "string",
          "name": "",
          "type": "string"
        }
      ],
      "stateMutability": "view",
      "type": "function"
    },
    {
      "inputs": [
        {
          "internalType": "uint256",
          "name": "tokenId",
          "type": "uint256"
        }
      ],
      "name": "ownerOf",
      "outputs": [
        {
          "internalType": "address",
          "name": "",
          "type": "address"
        }
      ],
      "stateMutability": "view",
      "type": "function"
    },
    {
      "inputs": [
        {
          "internalType": "address",
          "name": "from",
          "type": "address"
        },
        {
          "internalType": "address",
          "name": "to",
          "type": "address"
        },
        {
          "internalType": "uint256",
          "name": "tokenId",
          "type": "uint256"
        }
      ],
      "name": "safeTransferFrom",
      "outputs": [],
      "stateMutability": "nonpayable",
      "type": "function"
    },
    {
      "inputs": [
        {
          "internalType": "address",
          "name": "from",
          "type": "address"
        },
        {
          "internalType": "address",
          "name": "to",
          "type": "address"
        },
        {
          "internalType": "uint256",
          "name": "tokenId",
          "type": "uint256"
        },
        {
          "internalType": "bytes",
          "name": "data",
          "type": "bytes"
        }
      ],
      "name": "safeTransferFrom",
      "outputs": [],
      "stateMutability": "nonpayable",
      "type": "function"
    },
    {
      "inputs": [
        {
          "internalType": "address",
          "name": "operator",
          "type": "address"
        },
        {
          "internalType": "bool",
          "name": "approved",
          "type": "bool"
        }
      ],
      "name": "setApprovalForAll",
      "outputs": [],
      "stateMutability": "nonpayable",
      "type": "function"
    },
    {
      "inputs": [
        {
          "internalType": "bytes4",
          "name": "interfaceId",
          "type": "bytes4"
        }
      ],
      "name": "supportsInterface",
      "outputs": [
        {
          "internalType": "bool",
          "name": "",
          "type": "bool"
        }
      ],
      "stateMutability": "view",
      "type": "function"
    },
    {
      "inputs": [],
      "name": "symbol",
      "outputs": [
        {
          "internalType": "string",
          "name": "",
          "type": "string"
        }
      ],
      "stateMutability": "view",
      "type": "function"
    },
    {
      "inputs": [
        {
          "internalType": "uint256",
          "name": "tokenId",
          "type": "uint256"
        }
      ],
      "name": "tokenURI",
      "outputs": [
        {
          "internalType": "string",
          "name": "",
          "type": "string"
        }
      ],
      "stateMutability": "view",
      "type": "function"
    },
    {
      "inputs": [
        {
          "internalType": "uint256",
          "name": "",
          "type": "uint256"
        }
      ],
      "name": "tokenUris",
      "outputs": [
        {
          "internalType": "string",
          "name": "",
          "type": "string"
        }
      ],
      "stateMutability": "view",
      "type": "function"
    },
    {
      "inputs": [
        {
          "internalType": "address",
          "name": "from",
          "type": "address"
        },
        {
          "internalType": "address",
          "name": "to",
          "type": "address"
        },
        {
          "internalType": "uint256",
          "name": "tokenId",
          "type": "uint256"
        }
      ],
      "name": "transferFrom",
      "outputs": [],
      "stateMutability": "nonpayable",
      "type": "function"
    }
  ],
  "transactionHash": "0x69efb9007413f15452b47b71f91bff911aad0e85ef1350caf4dcf2d8800d1152",
  "args": [
    [
      "ipfs://QmeYXFyq34jaEeb5SRBCXGx27Mxbf8KjHhjfeodTjxqUMT",
      "ipfs://QmNd8e6gZ3sHiUA9P5ndxUGBSGAFyjGLyy63sTnpK1Akao",
      "ipfs://QmcnHVpyBcErHhAN8JEBcZHtzLo6jZhfKipcMEaLryNyb8",
      "ipfs://QmQjva3vPXaff9kJAYnPnonXKvnA7pjpaciwveXpb58WZA",
      "ipfs://QmdgS3vrexrbM4AantVfJizCA8Y6PYLBBsm8agdMeNXZpS",
      "ipfs://QmdeHiieGj62bxNtSpingL7ggsjzb457F1Yn8osTawYfsm",
      "ipfs://QmRmuYMvZvGWkgXa1wDKZrbSs9YioWAvu1tnEQ1QFbQvoz",
      "ipfs://QmeQbMtc6GDb18VbvNaUp17ypTsS2fvB6wDGynid9iYvS5",
      "ipfs://QmTFU9UACYV7KjVyMy41bMX6W8hcySGKrpoRrgx3tBM6XG",
      "ipfs://QmRzsLjCL2LZQSC4T5LDCRCFHBLNS1YxDnmqJgF54aexrT"
    ]
  ],
  "numDeployments": 1,
  "solcInputHash": "881303ef7d1582f922f91046a81171ae",
  "bytecode": "0x608060405234801562000010575f80fd5b506040516200337e3803806200337e833981810160405281019062000036919062000439565b6040518060400160405280600981526020017f42617369634e46547300000000000000000000000000000000000000000000008152506040518060400160405280600481526020017f424e465400000000000000000000000000000000000000000000000000000000815250815f9081620000b29190620006bf565b508060019081620000c49190620006bf565b5050505f60078190555080600890600a620000e1929190620000e9565b5050620007a3565b828054828255905f5260205f2090810192821562000134579160200282015b8281111562000133578251829081620001229190620006bf565b509160200191906001019062000108565b5b50905062000143919062000147565b5090565b5b808211156200016a575f81816200016091906200016e565b5060010162000148565b5090565b5080546200017c90620004bf565b5f825580601f106200018f5750620001ae565b601f0160209004905f5260205f2090810190620001ad9190620001b1565b5b50565b5b80821115620001ca575f815f905550600101620001b2565b5090565b5f604051905090565b5f80fd5b5f80fd5b5f80fd5b5f601f19601f8301169050919050565b7f4e487b71000000000000000000000000000000000000000000000000000000005f52604160045260245ffd5b6200022b82620001e3565b810181811067ffffffffffffffff821117156200024d576200024c620001f3565b5b80604052505050565b5f62000261620001ce565b90506200026f828262000220565b919050565b5f67ffffffffffffffff821115620002915762000290620001f3565b5b602082029050919050565b5f80fd5b5f80fd5b5f67ffffffffffffffff821115620002c157620002c0620001f3565b5b620002cc82620001e3565b9050602081019050919050565b5f5b83811015620002f8578082015181840152602081019050620002db565b5f8484015250505050565b5f620003196200031384620002a4565b62000256565b905082815260208101848484011115620003385762000337620002a0565b5b62000345848285620002d9565b509392505050565b5f82601f830112620003645762000363620001df565b5b81516200037684826020860162000303565b91505092915050565b5f620003956200038f8462000274565b62000256565b90508060208402830185811115620003b257620003b16200029c565b5b835b818110156200040057805167ffffffffffffffff811115620003db57620003da620001df565b5b808601620003ea89826200034d565b85526020850194505050602081019050620003b4565b5050509392505050565b5f82601f830112620004215762000420620001df565b5b600a620004308482856200037f565b91505092915050565b5f60208284031215620004515762000450620001d7565b5b5f82015167ffffffffffffffff811115620004715762000470620001db565b5b6200047f848285016200040a565b91505092915050565b5f81519050919050565b7f4e487b71000000000000000000000000000000000000000000000000000000005f52602260045260245ffd5b5f6002820490506001821680620004d757607f821691505b602082108103620004ed57620004ec62000492565b5b50919050565b5f819050815f5260205f209050919050565b5f6020601f8301049050919050565b5f82821b905092915050565b5f60088302620005517fffffffffffffffffffffffffffffffffffffffffffffffffffffffffffffffff8262000514565b6200055d868362000514565b95508019841693508086168417925050509392505050565b5f819050919050565b5f819050919050565b5f620005a7620005a16200059b8462000575565b6200057e565b62000575565b9050919050565b5f819050919050565b620005c28362000587565b620005da620005d182620005ae565b84845462000520565b825550505050565b5f90565b620005f0620005e2565b620005fd818484620005b7565b505050565b5b818110156200062457620006185f82620005e6565b60018101905062000603565b5050565b601f82111562000673576200063d81620004f3565b620006488462000505565b8101602085101562000658578190505b62000670620006678562000505565b83018262000602565b50505b505050565b5f82821c905092915050565b5f620006955f198460080262000678565b1980831691505092915050565b5f620006af838362000684565b9150826002028217905092915050565b620006ca8262000488565b67ffffffffffffffff811115620006e657620006e5620001f3565b5b620006f28254620004bf565b620006ff82828562000628565b5f60209050601f83116001811462000735575f841562000720578287015190505b6200072c8582620006a2565b8655506200079b565b601f1984166200074586620004f3565b5f5b828110156200076e5784890151825560018201915060208501945060208101905062000747565b868310156200078e57848901516200078a601f89168262000684565b8355505b6001600288020188555050505b505050505050565b612bcd80620007b15f395ff3fe608060405234801561000f575f80fd5b50600436106100fe575f3560e01c806370a0823111610095578063b88d4fde11610064578063b88d4fde146102bc578063c2229fea146102d8578063c87b56dd146102e2578063e985e9c514610312576100fe565b806370a082311461022257806395d89b4114610252578063a22cb46514610270578063ae882b651461028c576100fe565b806323b872dd116100d157806323b872dd1461019c57806342842e0e146101b85780636352211e146101d45780636e02007d14610204576100fe565b806301ffc9a71461010257806306fdde0314610132578063081812fc14610150578063095ea7b314610180575b5f80fd5b61011c60048036038101906101179190611b81565b610342565b6040516101299190611bc6565b60405180910390f35b61013a6103a2565b6040516101479190611c69565b60405180910390f35b61016a60048036038101906101659190611cbc565b610431565b6040516101779190611d26565b60405180910390f35b61019a60048036038101906101959190611d69565b610473565b005b6101b660048036038101906101b19190611da7565b610589565b005b6101d260048036038101906101cd9190611da7565b6105e9565b005b6101ee60048036038101906101e99190611cbc565b610608565b6040516101fb9190611d26565b60405180910390f35b61020c61068c565b6040516102199190611e06565b60405180910390f35b61023c60048036038101906102379190611e1f565b610695565b6040516102499190611e06565b60405180910390f35b61025a610749565b6040516102679190611c69565b60405180910390f35b61028a60048036038101906102859190611e74565b6107d9565b005b6102a660048036038101906102a19190611cbc565b6107ef565b6040516102b39190611c69565b60405180910390f35b6102d660048036038101906102d19190611fde565b610895565b005b6102e06108f7565b005b6102fc60048036038101906102f79190611cbc565b610a03565b6040516103099190611c69565b60405180910390f35b61032c6004803603810190610327919061205e565b610b0d565b6040516103399190611bc6565b60405180910390f35b5f634906490660e01b7bffffffffffffffffffffffffffffffffffffffffffffffffffffffff1916827bffffffffffffffffffffffffffffffffffffffffffffffffffffffff1916148061039b575061039a82610b9b565b5b9050919050565b60605f80546103b0906120c9565b80601f01602080910402602001604051908101604052809291908181526020018280546103dc906120c9565b80156104275780601f106103fe57610100808354040283529160200191610427565b820191905f5260205f20905b81548152906001019060200180831161040a57829003601f168201915b5050505050905090565b5f61043b82610c7c565b60045f8381526020019081526020015f205f9054906101000a900473ffffffffffffffffffffffffffffffffffffffff169050919050565b5f61047d82610608565b90508073ffffffffffffffffffffffffffffffffffffffff168373ffffffffffffffffffffffffffffffffffffffff16036104ed576040517f08c379a00000000000000000000000000000000000000000000000000000000081526004016104e490612169565b60405180910390fd5b8073ffffffffffffffffffffffffffffffffffffffff1661050c610cc7565b73ffffffffffffffffffffffffffffffffffffffff16148061053b575061053a81610535610cc7565b610b0d565b5b61057a576040517f08c379a0000000000000000000000000000000000000000000000000000000008152600401610571906121f7565b60405180910390fd5b6105848383610cce565b505050565b61059a610594610cc7565b82610d84565b6105d9576040517f08c379a00000000000000000000000000000000000000000000000000000000081526004016105d090612285565b60405180910390fd5b6105e4838383610e18565b505050565b61060383838360405180602001604052805f815250610895565b505050565b5f8061061383611104565b90505f73ffffffffffffffffffffffffffffffffffffffff168173ffffffffffffffffffffffffffffffffffffffff1603610683576040517f08c379a000000000000000000000000000000000000000000000000000000000815260040161067a906122ed565b60405180910390fd5b80915050919050565b5f600754905090565b5f8073ffffffffffffffffffffffffffffffffffffffff168273ffffffffffffffffffffffffffffffffffffffff1603610704576040517f08c379a00000000000000000000000000000000000000000000000000000000081526004016106fb9061237b565b60405180910390fd5b60035f8373ffffffffffffffffffffffffffffffffffffffff1673ffffffffffffffffffffffffffffffffffffffff1681526020019081526020015f20549050919050565b606060018054610758906120c9565b80601f0160208091040260200160405190810160405280929190818152602001828054610784906120c9565b80156107cf5780601f106107a6576101008083540402835291602001916107cf565b820191905f5260205f20905b8154815290600101906020018083116107b257829003601f168201915b5050505050905090565b6107eb6107e4610cc7565b838361113d565b5050565b600881815481106107fe575f80fd5b905f5260205f20015f915090508054610816906120c9565b80601f0160208091040260200160405190810160405280929190818152602001828054610842906120c9565b801561088d5780601f106108645761010080835404028352916020019161088d565b820191905f5260205f20905b81548152906001019060200180831161087057829003601f168201915b505050505081565b6108a66108a0610cc7565b83610d84565b6108e5576040517f08c379a00000000000000000000000000000000000000000000000000000000081526004016108dc90612285565b60405180910390fd5b6108f1848484846112a4565b50505050565b5f600a60075460405160200161090d9190611e06565b604051602081830303815290604052805190602001205f1c61092f91906123c6565b905061093d33600754611300565b6109eb60075460088381548110610957576109566123f6565b5b905f5260205f2001805461096a906120c9565b80601f0160208091040260200160405190810160405280929190818152602001828054610996906120c9565b80156109e15780601f106109b8576101008083540402835291602001916109e1565b820191905f5260205f20905b8154815290600101906020018083116109c457829003601f168201915b505050505061131d565b60016007546109fa9190612450565b60078190555050565b6060610a0e82610c7c565b5f60065f8481526020019081526020015f208054610a2b906120c9565b80601f0160208091040260200160405190810160405280929190818152602001828054610a57906120c9565b8015610aa25780601f10610a7957610100808354040283529160200191610aa2565b820191905f5260205f20905b815481529060010190602001808311610a8557829003601f168201915b505050505090505f610ab26113bf565b90505f815103610ac6578192505050610b08565b5f82511115610afa578082604051602001610ae29291906124bd565b60405160208183030381529060405292505050610b08565b610b03846113d5565b925050505b919050565b5f60055f8473ffffffffffffffffffffffffffffffffffffffff1673ffffffffffffffffffffffffffffffffffffffff1681526020019081526020015f205f8373ffffffffffffffffffffffffffffffffffffffff1673ffffffffffffffffffffffffffffffffffffffff1681526020019081526020015f205f9054906101000a900460ff16905092915050565b5f7f80ac58cd000000000000000000000000000000000000000000000000000000007bffffffffffffffffffffffffffffffffffffffffffffffffffffffff1916827bffffffffffffffffffffffffffffffffffffffffffffffffffffffff19161480610c6557507f5b5e139f000000000000000000000000000000000000000000000000000000007bffffffffffffffffffffffffffffffffffffffffffffffffffffffff1916827bffffffffffffffffffffffffffffffffffffffffffffffffffffffff1916145b80610c755750610c748261143a565b5b9050919050565b610c85816114a3565b610cc4576040517f08c379a0000000000000000000000000000000000000000000000000000000008152600401610cbb906122ed565b60405180910390fd5b50565b5f33905090565b8160045f8381526020019081526020015f205f6101000a81548173ffffffffffffffffffffffffffffffffffffffff021916908373ffffffffffffffffffffffffffffffffffffffff160217905550808273ffffffffffffffffffffffffffffffffffffffff16610d3e83610608565b73ffffffffffffffffffffffffffffffffffffffff167f8c5be1e5ebec7d5bd14f71427d1e84f3dd0314c0f7b2291e5b200ac8c7c3b92560405160405180910390a45050565b5f80610d8f83610608565b90508073ffffffffffffffffffffffffffffffffffffffff168473ffffffffffffffffffffffffffffffffffffffff161480610dd15750610dd08185610b0d565b5b80610e0f57508373ffffffffffffffffffffffffffffffffffffffff16610df784610431565b73ffffffffffffffffffffffffffffffffffffffff16145b91505092915050565b8273ffffffffffffffffffffffffffffffffffffffff16610e3882610608565b73ffffffffffffffffffffffffffffffffffffffff1614610e8e576040517f08c379a0000000000000000000000000000000000000000000000000000000008152600401610e8590612550565b60405180910390fd5b5f73ffffffffffffffffffffffffffffffffffffffff168273ffffffffffffffffffffffffffffffffffffffff1603610efc576040517f08c379a0000000000000000000000000000000000000000000000000000000008152600401610ef3906125de565b60405180910390fd5b610f0983838360016114e3565b8273ffffffffffffffffffffffffffffffffffffffff16610f2982610608565b73ffffffffffffffffffffffffffffffffffffffff1614610f7f576040517f08c379a0000000000000000000000000000000000000000000000000000000008152600401610f7690612550565b60405180910390fd5b60045f8281526020019081526020015f205f6101000a81549073ffffffffffffffffffffffffffffffffffffffff0219169055600160035f8573ffffffffffffffffffffffffffffffffffffffff1673ffffffffffffffffffffffffffffffffffffffff1681526020019081526020015f205f8282540392505081905550600160035f8473ffffffffffffffffffffffffffffffffffffffff1673ffffffffffffffffffffffffffffffffffffffff1681526020019081526020015f205f82825401925050819055508160025f8381526020019081526020015f205f6101000a81548173ffffffffffffffffffffffffffffffffffffffff021916908373ffffffffffffffffffffffffffffffffffffffff160217905550808273ffffffffffffffffffffffffffffffffffffffff168473ffffffffffffffffffffffffffffffffffffffff167fddf252ad1be2c89b69c2b068fc378daa952ba7f163c4a11628f55a4df523b3ef60405160405180910390a46110ff83838360016114e9565b505050565b5f60025f8381526020019081526020015f205f9054906101000a900473ffffffffffffffffffffffffffffffffffffffff169050919050565b8173ffffffffffffffffffffffffffffffffffffffff168373ffffffffffffffffffffffffffffffffffffffff16036111ab576040517f08c379a00000000000000000000000000000000000000000000000000000000081526004016111a290612646565b60405180910390fd5b8060055f8573ffffffffffffffffffffffffffffffffffffffff1673ffffffffffffffffffffffffffffffffffffffff1681526020019081526020015f205f8473ffffffffffffffffffffffffffffffffffffffff1673ffffffffffffffffffffffffffffffffffffffff1681526020019081526020015f205f6101000a81548160ff0219169083151502179055508173ffffffffffffffffffffffffffffffffffffffff168373ffffffffffffffffffffffffffffffffffffffff167f17307eab39ab6107e8899845ad3d59bd9653f200f220920489ca2b5937696c31836040516112979190611bc6565b60405180910390a3505050565b6112af848484610e18565b6112bb848484846114ef565b6112fa576040517f08c379a00000000000000000000000000000000000000000000000000000000081526004016112f1906126d4565b60405180910390fd5b50505050565b611319828260405180602001604052805f815250611671565b5050565b611326826114a3565b611365576040517f08c379a000000000000000000000000000000000000000000000000000000000815260040161135c90612762565b60405180910390fd5b8060065f8481526020019081526020015f209081611383919061291d565b507ff8e1a15aba9398e019f0b49df1a4fde98ee17ae345cb5f6b5e2c27f5033e8ce7826040516113b39190611e06565b60405180910390a15050565b606060405180602001604052805f815250905090565b60606113e082610c7c565b5f6113e96113bf565b90505f8151116114075760405180602001604052805f815250611432565b80611411846116cb565b6040516020016114229291906124bd565b6040516020818303038152906040525b915050919050565b5f7f01ffc9a7000000000000000000000000000000000000000000000000000000007bffffffffffffffffffffffffffffffffffffffffffffffffffffffff1916827bffffffffffffffffffffffffffffffffffffffffffffffffffffffff1916149050919050565b5f8073ffffffffffffffffffffffffffffffffffffffff166114c483611104565b73ffffffffffffffffffffffffffffffffffffffff1614159050919050565b50505050565b50505050565b5f61150f8473ffffffffffffffffffffffffffffffffffffffff16611795565b15611664578373ffffffffffffffffffffffffffffffffffffffff1663150b7a02611538610cc7565b8786866040518563ffffffff1660e01b815260040161155a9493929190612a3e565b6020604051808303815f875af192505050801561159557506040513d601f19601f820116820180604052508101906115929190612a9c565b60015b611614573d805f81146115c3576040519150601f19603f3d011682016040523d82523d5f602084013e6115c8565b606091505b505f81510361160c576040517f08c379a0000000000000000000000000000000000000000000000000000000008152600401611603906126d4565b60405180910390fd5b805181602001fd5b63150b7a0260e01b7bffffffffffffffffffffffffffffffffffffffffffffffffffffffff1916817bffffffffffffffffffffffffffffffffffffffffffffffffffffffff191614915050611669565b600190505b949350505050565b61167b83836117b7565b6116875f8484846114ef565b6116c6576040517f08c379a00000000000000000000000000000000000000000000000000000000081526004016116bd906126d4565b60405180910390fd5b505050565b60605f60016116d9846119ca565b0190505f8167ffffffffffffffff8111156116f7576116f6611eba565b5b6040519080825280601f01601f1916602001820160405280156117295781602001600182028036833780820191505090505b5090505f82602001820190505b60011561178a578080600190039150507f3031323334353637383961626364656600000000000000000000000000000000600a86061a8153600a858161177f5761177e612399565b5b0494505f8503611736575b819350505050919050565b5f808273ffffffffffffffffffffffffffffffffffffffff163b119050919050565b5f73ffffffffffffffffffffffffffffffffffffffff168273ffffffffffffffffffffffffffffffffffffffff1603611825576040517f08c379a000000000000000000000000000000000000000000000000000000000815260040161181c90612b11565b60405180910390fd5b61182e816114a3565b1561186e576040517f08c379a000000000000000000000000000000000000000000000000000000000815260040161186590612b79565b60405180910390fd5b61187b5f838360016114e3565b611884816114a3565b156118c4576040517f08c379a00000000000000000000000000000000000000000000000000000000081526004016118bb90612b79565b60405180910390fd5b600160035f8473ffffffffffffffffffffffffffffffffffffffff1673ffffffffffffffffffffffffffffffffffffffff1681526020019081526020015f205f82825401925050819055508160025f8381526020019081526020015f205f6101000a81548173ffffffffffffffffffffffffffffffffffffffff021916908373ffffffffffffffffffffffffffffffffffffffff160217905550808273ffffffffffffffffffffffffffffffffffffffff165f73ffffffffffffffffffffffffffffffffffffffff167fddf252ad1be2c89b69c2b068fc378daa952ba7f163c4a11628f55a4df523b3ef60405160405180910390a46119c65f838360016114e9565b5050565b5f805f90507a184f03e93ff9f4daa797ed6e38ed64bf6a1f0100000000000000008310611a26577a184f03e93ff9f4daa797ed6e38ed64bf6a1f0100000000000000008381611a1c57611a1b612399565b5b0492506040810190505b6d04ee2d6d415b85acef81000000008310611a63576d04ee2d6d415b85acef81000000008381611a5957611a58612399565b5b0492506020810190505b662386f26fc100008310611a9257662386f26fc100008381611a8857611a87612399565b5b0492506010810190505b6305f5e1008310611abb576305f5e1008381611ab157611ab0612399565b5b0492506008810190505b6127108310611ae0576127108381611ad657611ad5612399565b5b0492506004810190505b60648310611b035760648381611af957611af8612399565b5b0492506002810190505b600a8310611b12576001810190505b80915050919050565b5f604051905090565b5f80fd5b5f80fd5b5f7fffffffff0000000000000000000000000000000000000000000000000000000082169050919050565b611b6081611b2c565b8114611b6a575f80fd5b50565b5f81359050611b7b81611b57565b92915050565b5f60208284031215611b9657611b95611b24565b5b5f611ba384828501611b6d565b91505092915050565b5f8115159050919050565b611bc081611bac565b82525050565b5f602082019050611bd95f830184611bb7565b92915050565b5f81519050919050565b5f82825260208201905092915050565b5f5b83811015611c16578082015181840152602081019050611bfb565b5f8484015250505050565b5f601f19601f8301169050919050565b5f611c3b82611bdf565b611c458185611be9565b9350611c55818560208601611bf9565b611c5e81611c21565b840191505092915050565b5f6020820190508181035f830152611c818184611c31565b905092915050565b5f819050919050565b611c9b81611c89565b8114611ca5575f80fd5b50565b5f81359050611cb681611c92565b92915050565b5f60208284031215611cd157611cd0611b24565b5b5f611cde84828501611ca8565b91505092915050565b5f73ffffffffffffffffffffffffffffffffffffffff82169050919050565b5f611d1082611ce7565b9050919050565b611d2081611d06565b82525050565b5f602082019050611d395f830184611d17565b92915050565b611d4881611d06565b8114611d52575f80fd5b50565b5f81359050611d6381611d3f565b92915050565b5f8060408385031215611d7f57611d7e611b24565b5b5f611d8c85828601611d55565b9250506020611d9d85828601611ca8565b9150509250929050565b5f805f60608486031215611dbe57611dbd611b24565b5b5f611dcb86828701611d55565b9350506020611ddc86828701611d55565b9250506040611ded86828701611ca8565b9150509250925092565b611e0081611c89565b82525050565b5f602082019050611e195f830184611df7565b92915050565b5f60208284031215611e3457611e33611b24565b5b5f611e4184828501611d55565b91505092915050565b611e5381611bac565b8114611e5d575f80fd5b50565b5f81359050611e6e81611e4a565b92915050565b5f8060408385031215611e8a57611e89611b24565b5b5f611e9785828601611d55565b9250506020611ea885828601611e60565b9150509250929050565b5f80fd5b5f80fd5b7f4e487b71000000000000000000000000000000000000000000000000000000005f52604160045260245ffd5b611ef082611c21565b810181811067ffffffffffffffff82111715611f0f57611f0e611eba565b5b80604052505050565b5f611f21611b1b565b9050611f2d8282611ee7565b919050565b5f67ffffffffffffffff821115611f4c57611f4b611eba565b5b611f5582611c21565b9050602081019050919050565b828183375f83830152505050565b5f611f82611f7d84611f32565b611f18565b905082815260208101848484011115611f9e57611f9d611eb6565b5b611fa9848285611f62565b509392505050565b5f82601f830112611fc557611fc4611eb2565b5b8135611fd5848260208601611f70565b91505092915050565b5f805f8060808587031215611ff657611ff5611b24565b5b5f61200387828801611d55565b945050602061201487828801611d55565b935050604061202587828801611ca8565b925050606085013567ffffffffffffffff81111561204657612045611b28565b5b61205287828801611fb1565b91505092959194509250565b5f806040838503121561207457612073611b24565b5b5f61208185828601611d55565b925050602061209285828601611d55565b9150509250929050565b7f4e487b71000000000000000000000000000000000000000000000000000000005f52602260045260245ffd5b5f60028204905060018216806120e057607f821691505b6020821081036120f3576120f261209c565b5b50919050565b7f4552433732313a20617070726f76616c20746f2063757272656e74206f776e655f8201527f7200000000000000000000000000000000000000000000000000000000000000602082015250565b5f612153602183611be9565b915061215e826120f9565b604082019050919050565b5f6020820190508181035f83015261218081612147565b9050919050565b7f4552433732313a20617070726f76652063616c6c6572206973206e6f7420746f5f8201527f6b656e206f776e6572206f7220617070726f76656420666f7220616c6c000000602082015250565b5f6121e1603d83611be9565b91506121ec82612187565b604082019050919050565b5f6020820190508181035f83015261220e816121d5565b9050919050565b7f4552433732313a2063616c6c6572206973206e6f7420746f6b656e206f776e655f8201527f72206f7220617070726f76656400000000000000000000000000000000000000602082015250565b5f61226f602d83611be9565b915061227a82612215565b604082019050919050565b5f6020820190508181035f83015261229c81612263565b9050919050565b7f4552433732313a20696e76616c696420746f6b656e20494400000000000000005f82015250565b5f6122d7601883611be9565b91506122e2826122a3565b602082019050919050565b5f6020820190508181035f830152612304816122cb565b9050919050565b7f4552433732313a2061646472657373207a65726f206973206e6f7420612076615f8201527f6c6964206f776e65720000000000000000000000000000000000000000000000602082015250565b5f612365602983611be9565b91506123708261230b565b604082019050919050565b5f6020820190508181035f83015261239281612359565b9050919050565b7f4e487b71000000000000000000000000000000000000000000000000000000005f52601260045260245ffd5b5f6123d082611c89565b91506123db83611c89565b9250826123eb576123ea612399565b5b828206905092915050565b7f4e487b71000000000000000000000000000000000000000000000000000000005f52603260045260245ffd5b7f4e487b71000000000000000000000000000000000000000000000000000000005f52601160045260245ffd5b5f61245a82611c89565b915061246583611c89565b925082820190508082111561247d5761247c612423565b5b92915050565b5f81905092915050565b5f61249782611bdf565b6124a18185612483565b93506124b1818560208601611bf9565b80840191505092915050565b5f6124c8828561248d565b91506124d4828461248d565b91508190509392505050565b7f4552433732313a207472616e736665722066726f6d20696e636f7272656374205f8201527f6f776e6572000000000000000000000000000000000000000000000000000000602082015250565b5f61253a602583611be9565b9150612545826124e0565b604082019050919050565b5f6020820190508181035f8301526125678161252e565b9050919050565b7f4552433732313a207472616e7366657220746f20746865207a65726f206164645f8201527f7265737300000000000000000000000000000000000000000000000000000000602082015250565b5f6125c8602483611be9565b91506125d38261256e565b604082019050919050565b5f6020820190508181035f8301526125f5816125bc565b9050919050565b7f4552433732313a20617070726f766520746f2063616c6c6572000000000000005f82015250565b5f612630601983611be9565b915061263b826125fc565b602082019050919050565b5f6020820190508181035f83015261265d81612624565b9050919050565b7f4552433732313a207472616e7366657220746f206e6f6e2045524337323152655f8201527f63656976657220696d706c656d656e7465720000000000000000000000000000602082015250565b5f6126be603283611be9565b91506126c982612664565b604082019050919050565b5f6020820190508181035f8301526126eb816126b2565b9050919050565b7f45524337323155524953746f726167653a2055524920736574206f66206e6f6e5f8201527f6578697374656e7420746f6b656e000000000000000000000000000000000000602082015250565b5f61274c602e83611be9565b9150612757826126f2565b604082019050919050565b5f6020820190508181035f83015261277981612740565b9050919050565b5f819050815f5260205f209050919050565b5f6020601f8301049050919050565b5f82821b905092915050565b5f600883026127dc7fffffffffffffffffffffffffffffffffffffffffffffffffffffffffffffffff826127a1565b6127e686836127a1565b95508019841693508086168417925050509392505050565b5f819050919050565b5f61282161281c61281784611c89565b6127fe565b611c89565b9050919050565b5f819050919050565b61283a83612807565b61284e61284682612828565b8484546127ad565b825550505050565b5f90565b612862612856565b61286d818484612831565b505050565b5b81811015612890576128855f8261285a565b600181019050612873565b5050565b601f8211156128d5576128a681612780565b6128af84612792565b810160208510156128be578190505b6128d26128ca85612792565b830182612872565b50505b505050565b5f82821c905092915050565b5f6128f55f19846008026128da565b1980831691505092915050565b5f61290d83836128e6565b9150826002028217905092915050565b61292682611bdf565b67ffffffffffffffff81111561293f5761293e611eba565b5b61294982546120c9565b612954828285612894565b5f60209050601f831160018114612985575f8415612973578287015190505b61297d8582612902565b8655506129e4565b601f19841661299386612780565b5f5b828110156129ba57848901518255600182019150602085019450602081019050612995565b868310156129d757848901516129d3601f8916826128e6565b8355505b6001600288020188555050505b505050505050565b5f81519050919050565b5f82825260208201905092915050565b5f612a10826129ec565b612a1a81856129f6565b9350612a2a818560208601611bf9565b612a3381611c21565b840191505092915050565b5f608082019050612a515f830187611d17565b612a5e6020830186611d17565b612a6b6040830185611df7565b8181036060830152612a7d8184612a06565b905095945050505050565b5f81519050612a9681611b57565b92915050565b5f60208284031215612ab157612ab0611b24565b5b5f612abe84828501612a88565b91505092915050565b7f4552433732313a206d696e7420746f20746865207a65726f20616464726573735f82015250565b5f612afb602083611be9565b9150612b0682612ac7565b602082019050919050565b5f6020820190508181035f830152612b2881612aef565b9050919050565b7f4552433732313a20746f6b656e20616c7265616479206d696e746564000000005f82015250565b5f612b63601c83611be9565b9150612b6e82612b2f565b602082019050919050565b5f6020820190508181035f830152612b9081612b57565b905091905056fea2646970667358221220136f63c3c2b928bedd61e3d36032f15422ebf3726f11962c090aa95a8707255664736f6c63430008140033",
  "devdoc": {
    "events": {
      "Approval(address,address,uint256)": {
        "details": "Emitted when `owner` enables `approved` to manage the `tokenId` token."
      },
      "ApprovalForAll(address,address,bool)": {
        "details": "Emitted when `owner` enables or disables (`approved`) `operator` to manage all of its assets."
      },
      "BatchMetadataUpdate(uint256,uint256)": {
        "details": "This event emits when the metadata of a range of tokens is changed. So that the third-party platforms such as NFT market could timely update the images and related attributes of the NFTs."
      },
      "MetadataUpdate(uint256)": {
        "details": "This event emits when the metadata of a token is changed. So that the third-party platforms such as NFT market could timely update the images and related attributes of the NFT."
      },
      "Transfer(address,address,uint256)": {
        "details": "Emitted when `tokenId` token is transferred from `from` to `to`."
      }
    },
    "kind": "dev",
    "methods": {
      "approve(address,uint256)": {
        "details": "See {IERC721-approve}."
      },
      "balanceOf(address)": {
        "details": "See {IERC721-balanceOf}."
      },
      "getApproved(uint256)": {
        "details": "See {IERC721-getApproved}."
      },
      "isApprovedForAll(address,address)": {
        "details": "See {IERC721-isApprovedForAll}."
      },
      "name()": {
        "details": "See {IERC721Metadata-name}."
      },
      "ownerOf(uint256)": {
        "details": "See {IERC721-ownerOf}."
      },
      "safeTransferFrom(address,address,uint256)": {
        "details": "See {IERC721-safeTransferFrom}."
      },
      "safeTransferFrom(address,address,uint256,bytes)": {
        "details": "See {IERC721-safeTransferFrom}."
      },
      "setApprovalForAll(address,bool)": {
        "details": "See {IERC721-setApprovalForAll}."
      },
      "supportsInterface(bytes4)": {
        "details": "See {IERC165-supportsInterface}"
      },
      "symbol()": {
        "details": "See {IERC721Metadata-symbol}."
      },
      "tokenURI(uint256)": {
        "details": "See {IERC721Metadata-tokenURI}."
      },
      "transferFrom(address,address,uint256)": {
        "details": "See {IERC721-transferFrom}."
      }
    },
    "version": 1
  },
  "userdoc": {
    "kind": "user",
    "methods": {},
    "version": 1
  },
  "storageLayout": {
    "storage": [
      {
        "astId": 53,
        "contract": "contracts/BasicNFTs.sol:BasicNFTs",
        "label": "_name",
        "offset": 0,
        "slot": "0",
        "type": "t_string_storage"
      },
      {
        "astId": 55,
        "contract": "contracts/BasicNFTs.sol:BasicNFTs",
        "label": "_symbol",
        "offset": 0,
        "slot": "1",
        "type": "t_string_storage"
      },
      {
        "astId": 59,
        "contract": "contracts/BasicNFTs.sol:BasicNFTs",
        "label": "_owners",
        "offset": 0,
        "slot": "2",
        "type": "t_mapping(t_uint256,t_address)"
      },
      {
        "astId": 63,
        "contract": "contracts/BasicNFTs.sol:BasicNFTs",
        "label": "_balances",
        "offset": 0,
        "slot": "3",
        "type": "t_mapping(t_address,t_uint256)"
      },
      {
        "astId": 67,
        "contract": "contracts/BasicNFTs.sol:BasicNFTs",
        "label": "_tokenApprovals",
        "offset": 0,
        "slot": "4",
        "type": "t_mapping(t_uint256,t_address)"
      },
      {
        "astId": 73,
        "contract": "contracts/BasicNFTs.sol:BasicNFTs",
        "label": "_operatorApprovals",
        "offset": 0,
        "slot": "5",
        "type": "t_mapping(t_address,t_mapping(t_address,t_bool))"
      },
      {
        "astId": 1104,
        "contract": "contracts/BasicNFTs.sol:BasicNFTs",
        "label": "_tokenURIs",
        "offset": 0,
        "slot": "6",
        "type": "t_mapping(t_uint256,t_string_storage)"
      },
      {
        "astId": 2866,
        "contract": "contracts/BasicNFTs.sol:BasicNFTs",
        "label": "tokenCounter",
        "offset": 0,
        "slot": "7",
        "type": "t_uint256"
      },
      {
        "astId": 2880,
        "contract": "contracts/BasicNFTs.sol:BasicNFTs",
        "label": "tokenUris",
        "offset": 0,
        "slot": "8",
        "type": "t_array(t_string_storage)dyn_storage"
      }
    ],
    "types": {
      "t_address": {
        "encoding": "inplace",
        "label": "address",
        "numberOfBytes": "20"
      },
      "t_array(t_string_storage)dyn_storage": {
        "base": "t_string_storage",
        "encoding": "dynamic_array",
        "label": "string[]",
        "numberOfBytes": "32"
      },
      "t_bool": {
        "encoding": "inplace",
        "label": "bool",
        "numberOfBytes": "1"
      },
      "t_mapping(t_address,t_bool)": {
        "encoding": "mapping",
        "key": "t_address",
        "label": "mapping(address => bool)",
        "numberOfBytes": "32",
        "value": "t_bool"
      },
      "t_mapping(t_address,t_mapping(t_address,t_bool))": {
        "encoding": "mapping",
        "key": "t_address",
        "label": "mapping(address => mapping(address => bool))",
        "numberOfBytes": "32",
        "value": "t_mapping(t_address,t_bool)"
      },
      "t_mapping(t_address,t_uint256)": {
        "encoding": "mapping",
        "key": "t_address",
        "label": "mapping(address => uint256)",
        "numberOfBytes": "32",
        "value": "t_uint256"
      },
      "t_mapping(t_uint256,t_address)": {
        "encoding": "mapping",
        "key": "t_uint256",
        "label": "mapping(uint256 => address)",
        "numberOfBytes": "32",
        "value": "t_address"
      },
      "t_mapping(t_uint256,t_string_storage)": {
        "encoding": "mapping",
        "key": "t_uint256",
        "label": "mapping(uint256 => string)",
        "numberOfBytes": "32",
        "value": "t_string_storage"
      },
      "t_string_storage": {
        "encoding": "bytes",
        "label": "string",
        "numberOfBytes": "32"
      },
      "t_uint256": {
        "encoding": "inplace",
        "label": "uint256",
        "numberOfBytes": "32"
      }
    }
  }
}